:020000002A2AAA
:10000800FF00030E8301AE000A08AF008A018B1CB3
:1000180017288B10260827040130031D0030A6007E
:10002800A7000030A7002F088A002E0E8300FF0EBD
:040038007F0E09002E
:10003C00710DF80DF90D7408F8027508031C750F95
:10004C00F902F00DF10D0F30FC00710DF80DF90DEA
:10005C007408701C3728F8027508031C750FF90218
:10006C003C28F80775080318750FF907F00DF10D0A
:10007C00FC0B2B28701848287408F807750803180F
:08008C00750FF90700000800E0
:10009400831203137408003A031D59287508003AA3
:1000A400031D5928FF30F0007F30F100B22883127D
:1000B4000313FD01F901F8017108700403190034F8
:1000C40071087506FA00FA1BFD09FB01F51F6F287C
:1000D400F409F509F40A0319F50AF11F7628F00961
:1000E400F109F00A0319F10A71087504FA00FA1B00
:1000F4008B281E207B189E28FD1F0034F009F1096F
:10010400F00A0319F10AF809F909F80A0319F90AB6
:100114000034F51F9A28F11B96287108F90070081D
:10012400F800F101F0017E28F101F001F00A003439
:10013400F109F009FB0A7B28F80A0319F90A740883
:100144007802031D7E2875087902031D7E28F901B3
:10015400F801F00A0319F10AF11F7E280000FF34A8
:02016400080091
:1001660083120313081488100811881108128816C0
:0201760008007F
:1001780083120313081088100815881108168812AE
:0201880008006D
:10018A000A3083120313F4000030F5003008F0003F
:10019A003108F1004A207008B2007108B300320831
:1001AA00A2003308A3000A30F4000030F50030083A
:1001BA00F0003108F1004A207808F0007908F100CF
:1001CA007008A4007108A500F0300605F3000F308E
:1001DA003205F200720873048600F0300705F20057
:0C01EA000F30F005700872048700080058
:1001F6008312031308108810081588150812881230
:020206000800EE
:100208000A3083120313F4000030F5003008F000C0
:100218003108F1004A207008B2007108B3003208B2
:10022800A2003308A3000A30F4000030F5003008BB
:10023800F0003108F1004A207808F0007908F10050
:100248007008A4007108A5000F300605F4000430FA
:10025800F3003208F200730803193629F20D721000
:10026800FF3E30297208740486000F300705F40039
:100278000430F3007008F200730803194729F20DDF
:0E0288007210FF3E41297208740487000800BE
:10029600831203130810881408118811081288168F
:0202A60008004E
:0E02A8008312031321088A0020088200080038
:1002B600033083120313AC000030AD0080302D06EE
:1002C600F00080307002031D6A2901302C02031CE5
:1002D6009329BC202C08B0002D08B100C5202C089D
:1002E600B0002D08B10004210B30FB002630FC00C5
:1002F6005D30FD00FD0B7D29FC0B7D29FB0B7D2967
:100306000000000000302706031D8B29003026065A
:10031600031D8E2998290130AC02031CAD03612907
:0C0326000130A8000030A900B32008003E
:10033200033083120313AC000030AD0080302D0671
:10034200F00080307002031DA82901302C02031C2A
:10035200D1294B212C08B0002D08B100C5202C0852
:10036200B0002D08B10004210B30FB002630FC0048
:100372005D30FD00FD0BBB29FC0BBB29FB0BBB2930
:100382000000000000302706031DC92900302606A0
:10039200031DCC29D6290130AC02031CAD039F29D1
:0C03A2000230A8000030A900FB20080079
:1003AE0054218A110A128000840AA00A0319A10A94
:0803BE00F003031DD72908001C
:1003C60083120313B001B101C520B001B1010421AC
:1003D600003009180130AA00AB0100302706031DC2
:1003E600F62901302606031D292AF1010918F10A0A
:1003F60000302B06031D012A71082A0603191F2A3D
:1004060000302906031D092A01302806031D0D2A7E
:1004160099210E2A5B21091C1A2A1A30FC00F83091
:10042600FD00FD0B142AFC0B142A00000E2A0030D6
:1004360009180130AA00AB0100302706031D252A42
:0E04460000302606031D282A292AF029080066
:100454000630831603139F008B170B160117013008
:100464008500860187018801013089008312850196
:100474008601870188018901A601A70100302706AA
:10048400031D462A00302606031D532B0130A80005
:100494000030A9001430AC000030AD0080302D06CF
:1004A400F00080307002031D592A01302C02031C15
:1004B400852AB3202C08B0002D08B100C5200330D4
:1004C4002C07B0002D080318013EB10004210B30A5
:1004D400FB002630FC005D30FD00FD0B6F2AFC0B99
:1004E4006F2AFB0B6F2A0000000000302706031D53
:1004F4007D2A01302606031D802A852A0130AC029C
:10050400031CAD03502A00302706031D8B2A01303B
:100514002606031D8E2A552B0330AC000030AD0097
:1005240080302D06F00080307002031D9B2A0130BC
:100534002C02031CC42A4B212C08B0002D08B10046
:10054400C5202C08B0002D08B10004210B30FB009D
:100554002630FC005D30FD00FD0BAE2AFC0BAE2AFC
:10056400FB0BAE2A0000000000302706031DBC2A46
:1005740001302606031DBF2AC42A0130AC02031C25
:10058400AD03922A00302706031DCA2A013026062D
:10059400031DCD2A552B0230A8000030A9001430C9
:1005A400AC000030AD0080302D06F00080307002C9
:1005B400031DDE2A01302C02031C0A2BFB2003300E
:1005C4002C07B0002D080318013EB100C5202C08EB
:1005D400B0002D08B10004210B30FB002630FC00D4
:1005E4005D30FD00FD0BF42AFC0BF42AFB0BF42A0E
:1005F4000000000000302706031D022B01302606F0
:10060400031D052B0A2B0130AC02031CAD03D52AB4
:1006140000302706031D102B01302606031D132B63
:10062400552B0330AC000030AD0080302D06F000B7
:1006340080307002031D202B01302C02031C492B37
:10064400BC202C08B0002D08B100C5202C08B00037
:100654002D08B10004210B30FB002630FC005D3076
:10066400FD00FD0B332BFC0B332BFB0B332B00005A
:10067400000000302706031D412B01302606031D10
:10068400442B492B0130AC02031CAD03172B003063
:100694002706031D4F2B01302606031D522B552B15
:0806A400542BE321402A552BE1
:02400E00022F7F
:00000001FF
